{
  "contractName": "Marketplace",
  "abi": [
    {
      "inputs": [],
      "payable": false,
      "stateMutability": "nonpayable",
      "type": "constructor"
    },
    {
      "anonymous": false,
      "inputs": [
        {
          "indexed": false,
          "internalType": "uint256",
          "name": "id",
          "type": "uint256"
        },
        {
          "indexed": false,
          "internalType": "string",
          "name": "name",
          "type": "string"
        },
        {
          "indexed": false,
          "internalType": "uint256",
          "name": "price",
          "type": "uint256"
        },
        {
          "indexed": false,
          "internalType": "address payable",
          "name": "owner",
          "type": "address"
        },
        {
          "indexed": false,
          "internalType": "bool",
          "name": "purchased",
          "type": "bool"
        }
      ],
      "name": "ProductCreated",
      "type": "event"
    },
    {
      "anonymous": false,
      "inputs": [
        {
          "indexed": false,
          "internalType": "uint256",
          "name": "id",
          "type": "uint256"
        },
        {
          "indexed": false,
          "internalType": "string",
          "name": "name",
          "type": "string"
        },
        {
          "indexed": false,
          "internalType": "uint256",
          "name": "price",
          "type": "uint256"
        },
        {
          "indexed": false,
          "internalType": "address payable",
          "name": "owner",
          "type": "address"
        },
        {
          "indexed": false,
          "internalType": "bool",
          "name": "purchased",
          "type": "bool"
        }
      ],
      "name": "ProductPurchased",
      "type": "event"
    },
    {
      "anonymous": false,
      "inputs": [
        {
          "indexed": false,
          "internalType": "uint256",
          "name": "pid",
          "type": "uint256"
        },
        {
          "indexed": false,
          "internalType": "string",
          "name": "pname",
          "type": "string"
        },
        {
          "indexed": false,
          "internalType": "address payable",
          "name": "owner",
          "type": "address"
        }
      ],
      "name": "addedProduct",
      "type": "event"
    },
    {
      "anonymous": false,
      "inputs": [
        {
          "indexed": false,
          "internalType": "uint256",
          "name": "pid",
          "type": "uint256"
        },
        {
          "indexed": false,
          "internalType": "string",
          "name": "pname",
          "type": "string"
        },
        {
          "indexed": false,
          "internalType": "address payable",
          "name": "owner",
          "type": "address"
        }
      ],
      "name": "donated",
      "type": "event"
    },
    {
      "anonymous": false,
      "inputs": [
        {
          "indexed": false,
          "internalType": "uint256",
          "name": "id",
          "type": "uint256"
        },
        {
          "indexed": false,
          "internalType": "string",
          "name": "name",
          "type": "string"
        },
        {
          "indexed": false,
          "internalType": "uint256",
          "name": "price",
          "type": "uint256"
        },
        {
          "indexed": false,
          "internalType": "address payable",
          "name": "dAddress",
          "type": "address"
        },
        {
          "indexed": false,
          "internalType": "string",
          "name": "pname",
          "type": "string"
        }
      ],
      "name": "donorAdded",
      "type": "event"
    },
    {
      "constant": true,
      "inputs": [],
      "name": "donorCount",
      "outputs": [
        {
          "internalType": "uint256",
          "name": "",
          "type": "uint256"
        }
      ],
      "payable": false,
      "stateMutability": "view",
      "type": "function"
    },
    {
      "constant": true,
      "inputs": [
        {
          "internalType": "uint256",
          "name": "",
          "type": "uint256"
        }
      ],
      "name": "donors",
      "outputs": [
        {
          "internalType": "uint256",
          "name": "id",
          "type": "uint256"
        },
        {
          "internalType": "string",
          "name": "name",
          "type": "string"
        },
        {
          "internalType": "uint256",
          "name": "price",
          "type": "uint256"
        },
        {
          "internalType": "address payable",
          "name": "dAddress",
          "type": "address"
        },
        {
          "internalType": "string",
          "name": "pname",
          "type": "string"
        }
      ],
      "payable": false,
      "stateMutability": "view",
      "type": "function"
    },
    {
      "constant": true,
      "inputs": [],
      "name": "product2Count",
      "outputs": [
        {
          "internalType": "uint256",
          "name": "",
          "type": "uint256"
        }
      ],
      "payable": false,
      "stateMutability": "view",
      "type": "function"
    },
    {
      "constant": true,
      "inputs": [],
      "name": "productCount",
      "outputs": [
        {
          "internalType": "uint256",
          "name": "",
          "type": "uint256"
        }
      ],
      "payable": false,
      "stateMutability": "view",
      "type": "function"
    },
    {
      "constant": true,
      "inputs": [
        {
          "internalType": "uint256",
          "name": "",
          "type": "uint256"
        }
      ],
      "name": "products",
      "outputs": [
        {
          "internalType": "uint256",
          "name": "id",
          "type": "uint256"
        },
        {
          "internalType": "string",
          "name": "name",
          "type": "string"
        },
        {
          "internalType": "uint256",
          "name": "price",
          "type": "uint256"
        },
        {
          "internalType": "address payable",
          "name": "owner",
          "type": "address"
        },
        {
          "internalType": "bool",
          "name": "purchased",
          "type": "bool"
        }
      ],
      "payable": false,
      "stateMutability": "view",
      "type": "function"
    },
    {
      "constant": true,
      "inputs": [
        {
          "internalType": "uint256",
          "name": "",
          "type": "uint256"
        }
      ],
      "name": "products2",
      "outputs": [
        {
          "internalType": "uint256",
          "name": "pid",
          "type": "uint256"
        },
        {
          "internalType": "string",
          "name": "pname",
          "type": "string"
        },
        {
          "internalType": "address payable",
          "name": "owner",
          "type": "address"
        }
      ],
      "payable": false,
      "stateMutability": "view",
      "type": "function"
    },
    {
      "constant": false,
      "inputs": [
        {
          "internalType": "string",
          "name": "_name",
          "type": "string"
        }
      ],
      "name": "addProduct",
      "outputs": [],
      "payable": true,
      "stateMutability": "payable",
      "type": "function"
    },
    {
      "constant": false,
      "inputs": [
        {
          "internalType": "string",
          "name": "_name",
          "type": "string"
        },
        {
          "internalType": "uint256",
          "name": "_price",
          "type": "uint256"
        }
      ],
      "name": "createProduct",
      "outputs": [],
      "payable": false,
      "stateMutability": "nonpayable",
      "type": "function"
    },
    {
      "constant": false,
      "inputs": [
        {
          "internalType": "uint256",
          "name": "_id",
          "type": "uint256"
        }
      ],
      "name": "purchaseProduct",
      "outputs": [],
      "payable": true,
      "stateMutability": "payable",
      "type": "function"
    },
    {
      "constant": false,
      "inputs": [
        {
          "internalType": "string",
          "name": "_name",
          "type": "string"
        },
        {
          "internalType": "uint256",
          "name": "_id",
          "type": "uint256"
        },
        {
          "internalType": "uint256",
          "name": "_price",
          "type": "uint256"
        }
      ],
      "name": "donate",
      "outputs": [],
      "payable": true,
      "stateMutability": "payable",
      "type": "function"
    },
    {
      "constant": false,
      "inputs": [
        {
          "internalType": "string",
          "name": "_name",
          "type": "string"
        },
        {
          "internalType": "uint256",
          "name": "_price",
          "type": "uint256"
        },
        {
          "internalType": "string",
          "name": "_pname",
          "type": "string"
        }
      ],
      "name": "donorInfo",
      "outputs": [],
      "payable": false,
      "stateMutability": "nonpayable",
      "type": "function"
    }
  ],
  "bytecode": "0x60806040526000600355600060045560006005553480156200002057600080fd5b50620000706040518060400160405280600481526020017f666f6f6400000000000000000000000000000000000000000000000000000000815250670de0b6b3a76400006200026b60201b60201c565b620000bf6040518060400160405280600781526020017f636c6f7468657300000000000000000000000000000000000000000000000000815250670de0b6b3a76400006200026b60201b60201c565b6200010e6040518060400160405280600a81526020017f73746174696f6e65727900000000000000000000000000000000000000000000815250670de0b6b3a76400006200026b60201b60201c565b620001936040518060400160405280600781526020017f5368697368697200000000000000000000000000000000000000000000000000815250670de0b6b3a76400006040518060400160405280600781526020017f436c6f74686573000000000000000000000000000000000000000000000000008152506200048460201b60201c565b620001d96040518060400160405280600c81526020017f50726f6a656374204d65616c0000000000000000000000000000000000000000815250620006ee60201b60201c565b6200021f6040518060400160405280601181526020017f50726f6a65637420456475636174696f6e000000000000000000000000000000815250620006ee60201b60201c565b620002656040518060400160405280600e81526020017f4d697373696f6e206f787967656e000000000000000000000000000000000000815250620006ee60201b60201c565b62000959565b60008251116200027a57600080fd5b600081116200028857600080fd5b6003600081548092919060010191905055506040518060a0016040528060035481526020018381526020018281526020013373ffffffffffffffffffffffffffffffffffffffff1681526020016000151581525060016000600354815260200190815260200160002060008201518160000155602082015181600101908051906020019062000319929190620008aa565b506040820151816002015560608201518160030160006101000a81548173ffffffffffffffffffffffffffffffffffffffff021916908373ffffffffffffffffffffffffffffffffffffffff16021790555060808201518160030160146101000a81548160ff0219169083151502179055509050507fbc59c0c8165864dcceb377dd07d8f431d4303f8e501cb0a0374a10cc68d71836600354838333600060405180868152602001806020018581526020018473ffffffffffffffffffffffffffffffffffffffff1673ffffffffffffffffffffffffffffffffffffffff16815260200183151515158152602001828103825286818151815260200191508051906020019080838360005b838110156200044157808201518184015260208101905062000424565b50505050905090810190601f1680156200046f5780820380516001836020036101000a031916815260200191505b50965050505050505060405180910390a15050565b60008351116200049357600080fd5b6004600081548092919060010191905055506040518060a0016040528060045481526020018481526020018381526020013373ffffffffffffffffffffffffffffffffffffffff16815260200182815250600080600454815260200190815260200160002060008201518160000155602082015181600101908051906020019062000520929190620008aa565b506040820151816002015560608201518160030160006101000a81548173ffffffffffffffffffffffffffffffffffffffff021916908373ffffffffffffffffffffffffffffffffffffffff160217905550608082015181600401908051906020019062000590929190620008aa565b509050507febf22767206227154f173deaa43d87d949024248beaa23c1b9778ea9ab72c05b6004548484338560405180868152602001806020018581526020018473ffffffffffffffffffffffffffffffffffffffff1673ffffffffffffffffffffffffffffffffffffffff16815260200180602001838103835287818151815260200191508051906020019080838360005b838110156200064057808201518184015260208101905062000623565b50505050905090810190601f1680156200066e5780820380516001836020036101000a031916815260200191505b50838103825284818151815260200191508051906020019080838360005b83811015620006a95780820151818401526020810190506200068c565b50505050905090810190601f168015620006d75780820380516001836020036101000a031916815260200191505b5097505050505050505060405180910390a1505050565b6000815111620006fd57600080fd5b600560008154809291906001019190505550604051806060016040528060055481526020018281526020013373ffffffffffffffffffffffffffffffffffffffff168152506002600060055481526020019081526020016000206000820151816000015560208201518160010190805190602001906200077f929190620008aa565b5060408201518160020160006101000a81548173ffffffffffffffffffffffffffffffffffffffff021916908373ffffffffffffffffffffffffffffffffffffffff1602179055509050507f4d81cf5f451e6015122a88aeabc6e8529ba46231a630157b75ec8feceb24d37e600554823360405180848152602001806020018373ffffffffffffffffffffffffffffffffffffffff1673ffffffffffffffffffffffffffffffffffffffff168152602001828103825284818151815260200191508051906020019080838360005b838110156200086a5780820151818401526020810190506200084d565b50505050905090810190601f168015620008985780820380516001836020036101000a031916815260200191505b5094505050505060405180910390a150565b828054600181600116156101000203166002900490600052602060002090601f016020900481019282601f10620008ed57805160ff19168380011785556200091e565b828001600101855582156200091e579182015b828111156200091d57825182559160200191906001019062000900565b5b5090506200092d919062000931565b5090565b6200095691905b808211156200095257600081600090555060010162000938565b5090565b90565b61195880620009696000396000f3fe60806040526004361061009c5760003560e01c80638743b22b116100645780638743b22b146104c4578063aba56ee614610593578063c407670f14610681578063dfe00c51146106ac578063e0f6ef8714610767578063e9300c6c146107925761009c565b806338e76a03146100a15780634abfa163146100cf57806373a3b6dc14610230578063772e4cb41461025b5780637acc0b20146103c4575b600080fd5b6100cd600480360360208110156100b757600080fd5b8101908080359060200190929190505050610864565b005b3480156100db57600080fd5b50610108600480360360208110156100f257600080fd5b8101908080359060200190929190505050610be2565b60405180868152602001806020018581526020018473ffffffffffffffffffffffffffffffffffffffff1673ffffffffffffffffffffffffffffffffffffffff16815260200180602001838103835287818151815260200191508051906020019080838360005b8381101561018a57808201518184015260208101905061016f565b50505050905090810190601f1680156101b75780820380516001836020036101000a031916815260200191505b50838103825284818151815260200191508051906020019080838360005b838110156101f05780820151818401526020810190506101d5565b50505050905090810190601f16801561021d5780820380516001836020036101000a031916815260200191505b5097505050505050505060405180910390f35b34801561023c57600080fd5b50610245610d68565b6040518082815260200191505060405180910390f35b34801561026757600080fd5b506103c26004803603606081101561027e57600080fd5b810190808035906020019064010000000081111561029b57600080fd5b8201836020820111156102ad57600080fd5b803590602001918460018302840111640100000000831117156102cf57600080fd5b91908080601f016020809104026020016040519081016040528093929190818152602001838380828437600081840152601f19601f820116905080830192505050505050509192919290803590602001909291908035906020019064010000000081111561033c57600080fd5b82018360208201111561034e57600080fd5b8035906020019184600183028401116401000000008311171561037057600080fd5b91908080601f016020809104026020016040519081016040528093929190818152602001838380828437600081840152601f19601f820116905080830192505050505050509192919290505050610d6e565b005b3480156103d057600080fd5b506103fd600480360360208110156103e757600080fd5b8101908080359060200190929190505050610fcd565b60405180868152602001806020018581526020018473ffffffffffffffffffffffffffffffffffffffff1673ffffffffffffffffffffffffffffffffffffffff16815260200183151515158152602001828103825286818151815260200191508051906020019080838360005b8381101561048557808201518184015260208101905061046a565b50505050905090810190601f1680156104b25780820380516001836020036101000a031916815260200191505b50965050505050505060405180910390f35b610591600480360360608110156104da57600080fd5b81019080803590602001906401000000008111156104f757600080fd5b82018360208201111561050957600080fd5b8035906020019184600183028401116401000000008311171561052b57600080fd5b91908080601f016020809104026020016040519081016040528093929190818152602001838380828437600081840152601f19601f82011690508083019250505050505050919291929080359060200190929190803590602001909291905050506110c8565b005b34801561059f57600080fd5b506105cc600480360360208110156105b657600080fd5b810190808035906020019092919050505061134a565b60405180848152602001806020018373ffffffffffffffffffffffffffffffffffffffff1673ffffffffffffffffffffffffffffffffffffffff168152602001828103825284818151815260200191508051906020019080838360005b83811015610644578082015181840152602081019050610629565b50505050905090810190601f1680156106715780820380516001836020036101000a031916815260200191505b5094505050505060405180910390f35b34801561068d57600080fd5b5061069661142c565b6040518082815260200191505060405180910390f35b610765600480360360208110156106c257600080fd5b81019080803590602001906401000000008111156106df57600080fd5b8201836020820111156106f157600080fd5b8035906020019184600183028401116401000000008311171561071357600080fd5b91908080601f016020809104026020016040519081016040528093929190818152602001838380828437600081840152601f19601f820116905080830192505050505050509192919290505050611432565b005b34801561077357600080fd5b5061077c6115e8565b6040518082815260200191505060405180910390f35b34801561079e57600080fd5b50610862600480360360408110156107b557600080fd5b81019080803590602001906401000000008111156107d257600080fd5b8201836020820111156107e457600080fd5b8035906020019184600183028401116401000000008311171561080657600080fd5b91908080601f016020809104026020016040519081016040528093929190818152602001838380828437600081840152601f19601f820116905080830192505050505050509192919290803590602001909291905050506115ee565b005b61086c611800565b600160008381526020019081526020016000206040518060a001604052908160008201548152602001600182018054600181600116156101000203166002900480601f01602080910402602001604051908101604052809291908181526020018280546001816001161561010002031660029004801561092d5780601f106109025761010080835404028352916020019161092d565b820191906000526020600020905b81548152906001019060200180831161091057829003601f168201915b50505050508152602001600282015481526020016003820160009054906101000a900473ffffffffffffffffffffffffffffffffffffffff1673ffffffffffffffffffffffffffffffffffffffff1673ffffffffffffffffffffffffffffffffffffffff1681526020016003820160149054906101000a900460ff1615151515815250509050600081606001519050600082600001511180156109d65750600354826000015111155b6109df57600080fd5b81604001513410156109f057600080fd5b8160016000858152602001908152602001600020600082015181600001556020820151816001019080519060200190610a2a929190611847565b506040820151816002015560608201518160030160006101000a81548173ffffffffffffffffffffffffffffffffffffffff021916908373ffffffffffffffffffffffffffffffffffffffff16021790555060808201518160030160146101000a81548160ff0219169083151502179055509050508073ffffffffffffffffffffffffffffffffffffffff166108fc349081150290604051600060405180830381858888f19350505050158015610ae5573d6000803e3d6000fd5b507f79558d0d7d4d900e2f15c4cc0a665f1acdbe415e44de900ecdd1e5bf12b56f4e6003548360200151846040015133600160405180868152602001806020018581526020018473ffffffffffffffffffffffffffffffffffffffff1673ffffffffffffffffffffffffffffffffffffffff16815260200183151515158152602001828103825286818151815260200191508051906020019080838360005b83811015610b9f578082015181840152602081019050610b84565b50505050905090810190601f168015610bcc5780820380516001836020036101000a031916815260200191505b50965050505050505060405180910390a1505050565b6000602052806000526040600020600091509050806000015490806001018054600181600116156101000203166002900480601f016020809104026020016040519081016040528092919081815260200182805460018160011615610100020316600290048015610c945780601f10610c6957610100808354040283529160200191610c94565b820191906000526020600020905b815481529060010190602001808311610c7757829003601f168201915b5050505050908060020154908060030160009054906101000a900473ffffffffffffffffffffffffffffffffffffffff1690806004018054600181600116156101000203166002900480601f016020809104026020016040519081016040528092919081815260200182805460018160011615610100020316600290048015610d5e5780601f10610d3357610100808354040283529160200191610d5e565b820191906000526020600020905b815481529060010190602001808311610d4157829003601f168201915b5050505050905085565b60055481565b6000835111610d7c57600080fd5b6004600081548092919060010191905055506040518060a0016040528060045481526020018481526020018381526020013373ffffffffffffffffffffffffffffffffffffffff168152602001828152506000806004548152602001908152602001600020600082015181600001556020820151816001019080519060200190610e07929190611847565b506040820151816002015560608201518160030160006101000a81548173ffffffffffffffffffffffffffffffffffffffff021916908373ffffffffffffffffffffffffffffffffffffffff1602179055506080820151816004019080519060200190610e75929190611847565b509050507febf22767206227154f173deaa43d87d949024248beaa23c1b9778ea9ab72c05b6004548484338560405180868152602001806020018581526020018473ffffffffffffffffffffffffffffffffffffffff1673ffffffffffffffffffffffffffffffffffffffff16815260200180602001838103835287818151815260200191508051906020019080838360005b83811015610f23578082015181840152602081019050610f08565b50505050905090810190601f168015610f505780820380516001836020036101000a031916815260200191505b50838103825284818151815260200191508051906020019080838360005b83811015610f89578082015181840152602081019050610f6e565b50505050905090810190601f168015610fb65780820380516001836020036101000a031916815260200191505b5097505050505050505060405180910390a1505050565b6001602052806000526040600020600091509050806000015490806001018054600181600116156101000203166002900480601f01602080910402602001604051908101604052809291908181526020018280546001816001161561010002031660029004801561107f5780601f106110545761010080835404028352916020019161107f565b820191906000526020600020905b81548152906001019060200180831161106257829003601f168201915b5050505050908060020154908060030160009054906101000a900473ffffffffffffffffffffffffffffffffffffffff16908060030160149054906101000a900460ff16905085565b6110d06118c7565b6002600084815260200190815260200160002060405180606001604052908160008201548152602001600182018054600181600116156101000203166002900480601f0160208091040260200160405190810160405280929190818152602001828054600181600116156101000203166002900480156111915780601f1061116657610100808354040283529160200191611191565b820191906000526020600020905b81548152906001019060200180831161117457829003601f168201915b505050505081526020016002820160009054906101000a900473ffffffffffffffffffffffffffffffffffffffff1673ffffffffffffffffffffffffffffffffffffffff1673ffffffffffffffffffffffffffffffffffffffff16815250509050600081604001519050600082600001511180156112155750600354826000015111155b61121e57600080fd5b8073ffffffffffffffffffffffffffffffffffffffff166108fc349081150290604051600060405180830381858888f19350505050158015611264573d6000803e3d6000fd5b507fe50db96e0aec83496026f7f599046065b154e4be8984af98c87d424d87ef458f60055483602001513360405180848152602001806020018373ffffffffffffffffffffffffffffffffffffffff1673ffffffffffffffffffffffffffffffffffffffff168152602001828103825284818151815260200191508051906020019080838360005b838110156113075780820151818401526020810190506112ec565b50505050905090810190601f1680156113345780820380516001836020036101000a031916815260200191505b5094505050505060405180910390a15050505050565b6002602052806000526040600020600091509050806000015490806001018054600181600116156101000203166002900480601f0160208091040260200160405190810160405280929190818152602001828054600181600116156101000203166002900480156113fc5780601f106113d1576101008083540402835291602001916113fc565b820191906000526020600020905b8154815290600101906020018083116113df57829003601f168201915b5050505050908060020160009054906101000a900473ffffffffffffffffffffffffffffffffffffffff16905083565b60045481565b600081511161144057600080fd5b600560008154809291906001019190505550604051806060016040528060055481526020018281526020013373ffffffffffffffffffffffffffffffffffffffff168152506002600060055481526020019081526020016000206000820151816000015560208201518160010190805190602001906114c0929190611847565b5060408201518160020160006101000a81548173ffffffffffffffffffffffffffffffffffffffff021916908373ffffffffffffffffffffffffffffffffffffffff1602179055509050507f4d81cf5f451e6015122a88aeabc6e8529ba46231a630157b75ec8feceb24d37e600554823360405180848152602001806020018373ffffffffffffffffffffffffffffffffffffffff1673ffffffffffffffffffffffffffffffffffffffff168152602001828103825284818151815260200191508051906020019080838360005b838110156115a957808201518184015260208101905061158e565b50505050905090810190601f1680156115d65780820380516001836020036101000a031916815260200191505b5094505050505060405180910390a150565b60035481565b60008251116115fc57600080fd5b6000811161160957600080fd5b6003600081548092919060010191905055506040518060a0016040528060035481526020018381526020018281526020013373ffffffffffffffffffffffffffffffffffffffff16815260200160001515815250600160006003548152602001908152602001600020600082015181600001556020820151816001019080519060200190611698929190611847565b506040820151816002015560608201518160030160006101000a81548173ffffffffffffffffffffffffffffffffffffffff021916908373ffffffffffffffffffffffffffffffffffffffff16021790555060808201518160030160146101000a81548160ff0219169083151502179055509050507fbc59c0c8165864dcceb377dd07d8f431d4303f8e501cb0a0374a10cc68d71836600354838333600060405180868152602001806020018581526020018473ffffffffffffffffffffffffffffffffffffffff1673ffffffffffffffffffffffffffffffffffffffff16815260200183151515158152602001828103825286818151815260200191508051906020019080838360005b838110156117be5780820151818401526020810190506117a3565b50505050905090810190601f1680156117eb5780820380516001836020036101000a031916815260200191505b50965050505050505060405180910390a15050565b6040518060a00160405280600081526020016060815260200160008152602001600073ffffffffffffffffffffffffffffffffffffffff1681526020016000151581525090565b828054600181600116156101000203166002900490600052602060002090601f016020900481019282601f1061188857805160ff19168380011785556118b6565b828001600101855582156118b6579182015b828111156118b557825182559160200191906001019061189a565b5b5090506118c391906118fe565b5090565b60405180606001604052806000815260200160608152602001600073ffffffffffffffffffffffffffffffffffffffff1681525090565b61192091905b8082111561191c576000816000905550600101611904565b5090565b9056fea265627a7a7231582064e7d5b0ede24f14475448941e92b857ab9784e7a12c16bbd99e83c4fe41070f64736f6c63430005100032",
  "source": "pragma solidity ^0.5.0;\r\ncontract Marketplace{\r\n\tstruct Product{\r\n\t\tuint id;\r\n\t\tstring name;\r\n\t\tuint price;\r\n\t\taddress payable owner;\r\n\t\tbool purchased;\r\n\t}\r\n\tstruct Product2{\r\n\t\tuint pid;\r\n\t\tstring pname;\r\n\t\taddress payable owner;\r\n\t}\r\n\tstruct Donor{\r\n\t\tuint id;\r\n\t\tstring name;\r\n\t\tuint price;\r\n\t\taddress payable dAddress;\r\n\t\tstring pname;\r\n\t}\r\n\r\n\tevent ProductCreated(\r\n\t\tuint id,\r\n\t\tstring name,\r\n\t\tuint price,\r\n\t\taddress payable owner,\r\n\t\tbool purchased\r\n\t);\r\n\tevent ProductPurchased(\r\n\t\tuint id,\r\n\t\tstring name,\r\n\t\tuint price,\r\n\t\taddress payable owner,\r\n\t\tbool purchased\r\n\t);\r\n\tevent donorAdded(\r\n\t\tuint id,\r\n\t\tstring name,\r\n\t\tuint price,\r\n\t\taddress payable dAddress,\r\n\t\tstring pname\r\n\t);\r\n\tevent addedProduct(\r\n\t\tuint pid,\r\n\t\tstring pname,\r\n\t\taddress payable owner \r\n\t);\r\n\tevent donated(\r\n\t\tuint pid,\r\n\t\tstring pname,\r\n\t\taddress payable owner\r\n\t);\r\n\r\n\t\r\n\tmapping (uint => Donor) public donors;\r\n\tmapping (uint => Product) public products;\r\n\tmapping (uint => Product2) public products2;\r\n\tuint public productCount=0;\r\n\tuint public donorCount=0;\r\n\tuint public product2Count=0;\r\n\r\n\tconstructor() public{\r\n        createProduct('food',1000000000000000000);\r\n        createProduct('clothes',1000000000000000000);\r\n        createProduct('stationery',1000000000000000000);  \r\n        donorInfo('Shishir', 1000000000000000000, 'Clothes');\r\n        addProduct('Project Meal');\r\n        addProduct('Project Education');\r\n        addProduct('Mission oxygen');\r\n\r\n\r\n    }\r\n\r\n    function addProduct(string memory _name) public payable{\r\n\r\n    \trequire (bytes(_name).length>0);\r\n    \tproduct2Count++;\r\n    \tproducts2[product2Count] = Product2(product2Count,_name,msg.sender);\r\n    \temit addedProduct(product2Count,_name,msg.sender);\r\n    \r\n    }\r\n\r\n\tfunction createProduct(string memory _name, uint _price) public{\r\n\t\t//Make sure parameters are correct\r\n\t\t\t//require valid name\r\n\t\t\trequire (bytes(_name).length>0);\r\n\t\t\t//require valid price\r\n\t\t\trequire (_price>0);\r\n\t\t\t\r\n\t\t//increment product count\r\n\t\tproductCount++;\r\n\t\t// create product\r\n\t\tproducts[productCount]= Product(productCount,_name,_price,msg.sender,false);\r\n\t\t// trigger an event\r\n\t\temit ProductCreated(productCount,_name,_price,msg.sender,false);\r\n\t}\r\n\r\n\tfunction purchaseProduct(uint _id) public payable{\r\n\t\t// fetch the products\r\n\t\tProduct memory _product = products[_id]; // having a copy of product\r\n\t\t//fetch the owner\r\n\t\taddress payable _seller = _product.owner;\r\n\t\t//make sure product is valid\r\n\t\t// make sure product has valid id\r\n\t\trequire(_product.id>0 && _product.id<=productCount);\r\n\t\t//require that ether is enough\r\n\t\trequire(msg.value >= _product.price);\r\n\t\t//Require product is available\r\n\t\t// transfer ownership to the buyer\r\n\t\t// _product.owner = msg.sender;\r\n\t\t//purchase the product\r\n\t\t// _product.purchased = true;\r\n\t\t// update the product\r\n\t\tproducts[_id] = _product; // put it back in actual copy\r\n\t\t// pay the seller sending them ether\r\n\t\taddress(_seller).transfer(msg.value);\r\n\t\t//trigger event\r\n\t\temit ProductPurchased(productCount,_product.name,_product.price,msg.sender,true);\r\n\r\n\r\n\t}\r\n\tfunction donate(string memory _name,uint _id, uint _price) public payable{\r\n\t\tProduct2 memory _product2 = products2[_id]; // having a copy of product\r\n\t\t//fetch the owner\r\n\t\taddress payable _seller = _product2.owner;\r\n\t\t//make sure product is valid\r\n\t\trequire(_product2.pid>0 && _product2.pid<=productCount);\r\n\r\n\t\taddress(_seller).transfer(msg.value);\r\n\t\t//trigger event\r\n\t\temit donated(product2Count,_product2.pname,msg.sender);\r\n\r\n\r\n\t}\r\n\r\n\tfunction donorInfo(string memory _name, uint _price, string memory _pname) public{\r\n\t\t//Make sure parameters are correct\r\n\t\t//require valid name\r\n\t\trequire (bytes(_name).length>0);\t\r\n\t\t//increment product count\r\n\t\tdonorCount++;\r\n\t\t// create product\r\n\t\tdonors[donorCount]= Donor(donorCount,_name,_price,msg.sender,_pname);\r\n\t\t// trigger an event\r\n\t\temit donorAdded(donorCount,_name,_price,msg.sender,_pname);\r\n\t}\r\n\r\n}\r\n",
  "sourcePath": "C:\\Users\\Shishir\\projectv3\\src\\contracts\\Marketplace.sol",
  "compiler": {
    "name": "solc",
    "version": "0.5.16+commit.9c3226ce.Emscripten.clang"
  },
  "schemaVersion": "3.4.3",
  "updatedAt": "2021-12-28T15:03:49.636Z",
  "networkType": "ethereum",
  "devdoc": {
    "methods": {}
  },
  "userdoc": {
    "methods": {}
  }
}